:020000021000EC
:1080000000800020D58301001D8401001F84010031
:108010000000000000000000000000000000000060
:1080200000000000000000000000000021840100AA
:1080300000000000000000002384010025840100EE
:108040002784010027840100278401002784010080
:10805000278401000000000027840100278401001C
:108060002784010027840100278401002784010060
:108070002784010027840100278401002784010050
:108080002784010027840100278401002784010040
:108090002784010027840100278401002784010030
:1080A0002784010027840100000000000000000078
:1080B00000000000000000000000000000000000C0
:1080C000164B002B00D1144B9D46402292029A1A67
:1080D000924600218B460F461348144A121A00F0AC
:1080E00067F80F4B002B00D098470E4B002B00D0A9
:1080F00098470020002104000D000D48002802D000
:108100000C4800E000BF00F02DF82000290000F02E
:10811000EFF800F011F8C0460000080000800020D1
:10812000000000000000000060200020602000200F
:108130000000000000000000084B10B5041C002BDC
:1081400002D0002100E000BF054B1868836A002BB5
:1081500000D09847201C00F033F8C0460000000013
:10816000448401000E4B70B500251E1C0D4CE41A12
:10817000A410A54204D0AB00F35898470135F8E7A6
:1081800000F052F9084B00251E1C084CE41AA410FC
:10819000A54204D0AB00F35898470135F8E770BD0D
:1081A000602000206020002060200020602000204F
:1081B000031C8218934202D019700133FAE770470A
:1081C000FEE7C04680B500AF00F01CF8031E06D0E5
:1081D000094B0A4A1A600A4B802212021A6000F008
:1081E00051F8031E05D08023DA05C123DB000121ED
:1081F000D150BD4680BDC04604050040DFFF07C02A
:10820000186C004080B500AF1A4B1B68FF2213406A
:10821000012B2AD1184B1B680F22134025D1174B75
:108220001B68F022134006D1154B1B68F022134047
:1082300001D101231AE0114B1B68F0221340102BCF
:1082400006D10F4B1B68F022134001D101230DE032
:108250000A4B1B68F0221340302B06D1084B1B68D9
:10826000F022134001D1012300E00023181CBD4679
:1082700080BDC046E00F00F0E40F00F0E80F00F012
:10828000EC0F00F080B500AF0D4B1B68FF221340D0
:10829000012B11D10B4B1B680F2213400CD10A4B41
:1082A0001B68F0221340402B06D1084B1B68F022BC
:1082B000134001D1012300E00023181CBD4680BDFE
:1082C000E00F00F0E40F00F0E80F00F0EC0F00F01A
:1082D00080B582B000AF7860A023DB057A68C13238
:1082E000FF3292000321D150BD4602B080BDC0468E
:1082F00080B584B000AF0023FB600EE0FB68F02285
:1083000052041A41131C0122134003D0FB68181CAD
:10831000FFF7DEFFFB680133FB60FB681F2BEDD925
:108320000023BB602AE0A023DB05164A9B587B6034
:10833000A023DA051449BB68CB181B78191C01234C
:108340008B40191C7B68DB431940A123DB00D15013
:10835000A023DB050C49BA688A181278111C012287
:108360008A40111C7A680A4008495A50FA235B0077
:10837000181C00F00DF8BB680133BB60BB68032B11
:10838000D1DDCDE704050000488401000C050000A4
:1083900080B584B000AF786014E07B68013B7B60FF
:1083A0000B4BFB60FB68181C0138C046C046C0463A
:1083B000C046C046C046C046C046C046C046C0468D
:1083C000C046F1D17B68002BE7D1BD4604B080BD2B
:1083D000E703000003210A4802680A4302600948D3
:1083E00002680A4302600849084A094B9B1A03DDE8
:1083F000043BC858D050FBDC06488047064800477D
:108400002405004054050040548401000020002051
:1084100060200020C5810100C1800100FEE7FEE769
:10842000FEE7FEE7FEE7FEE7F8B5C046F8BC08BC8D
:108430009E467047F8B5C046F8BC08BC9E467047DB
:0C84400043000000002000201516171853
:08844C0074FCFF7F0100000039
:108454000000000000000000000000000000000018
:108464000000000000000000000000000000000008
:108474004084010000000000000000000000000033
:1084840000000000000000000000000000000000E8
:1084940000000000000000000000000000000000D8
:1084A40000000000000000000000000000000000C8
:04000003100083D591
:00000001FF
